:020000020000FC
:100000000C944B000C9446000C9446000C94460053
:100010000C9446000C9446000C9446000C94460048
:100020000C9446000C9446000C9446000C94460038
:100030000C945F000C9446000C9446000C9446000F
:100040000C9446000C9446000C9446000C94460018
:100050000C9446000C9446000C9446000C94460008
:100060000C9446000C9446000C9446000C944600F8
:100070000C9446000C9446000C9446000C944600E8
:100080000C9446000C9446000C9446000FEF04BB01
:1000900005EA05BBFFCF0FEF0DBF00E10EBF00E08B
:1000A0000FBD0DE00EBD00E00BBD00E00ABD00E09D
:1000B0000DBD0CBD00E107BF78940C945D000F935B
:0C00C0000FB70F930F910FBF0F91189511
:00000001FF
