:020000020000FC
:100000000C944B000C9446000C9446000C94460053
:100010000C9446000C9446000C9446000C94460048
:100020000C9446000C9446000C9446000C94460038
:100030000C9481000C9446000C9446000C948900AA
:100040000C9446000C9446000C9446000C94460018
:100050000C9446000C9446000C9446000C94460008
:100060000C9446000C9446000C9446000C944600F8
:100070000C9446000C9446000C9446000C944600E8
:100080000C9446000C9446000C9446000FEF04BB01
:1000900005EA05BBFFCF0FEF0DBF00E10EBF0FEF6D
:1000A00004BB00E002B90093640021B150916300E9
:1000B00030E061E097E080E00BE601BF0FE003BFB6
:1000C00000E002BF00E00FBD0DE00EBD0AE20BBD77
:1000D00000E30ABD00E00DBD0CBD02E107BF78944E
:1000E00065BB8F3F29F480E00E94CA000E94940003
:1000F0003F3FB1F77F3FA1F70E94D40070E00C941E
:1001000070000F930FB70F937FEF0F910FBF0F91F9
:1001100018950F930FB70F939A9511F48FEF97E0FF
:100120000F910FBF0F911895542F409163005417F2
:1001300061F040FF0C94A60041FF0C94AF0044FF17
:100140000C94B80043FF0C94C100089504E50BBD66
:1001500000E60ABD00E00DBD0CBD0C94A5000AE24E
:100160000BBD00E30ABD00E00DBD0CBD0C94A50065
:1001700005E10BBD08E10ABD00E00DBD0CBD0C940E
:10018000A5000AE00BBD0CE80ABD00E00DBD0CBDEA
:100190000C94A500212F11B116FD0C94D30026FF5D
:1001A0000C94D30030950895613011F462E0089505
:1001B000623019F464E00C94D700643019F468E0FC
:1001C0000C94D700683019F460E80C94D7006038BC
:1001D00019F460E40C94D700603419F460E20C94D4
:1001E000D700603219F460E10C94D7006031E1F679
:0601F00061E00C94D70051
:00000001FF
