:020000020000FC
:100000000C944B000C9446000C9446000C94460053
:100010000C9446000C9446000C9446000C94460048
:100020000C9446000C9446000C9446000C94460038
:100030000C9476000C9446000C9446000C944600F8
:100040000C9446000C9446000C9446000C94460018
:100050000C9446000C9446000C9446000C94460008
:100060000C9446000C9446000C9446000C944600F8
:100070000C9446000C9446000C9446000C944600E8
:100080000C9446000C9446000C9446000FEF04BB01
:1000900005EA05BBFFCF0FEF0DBF00E10EBF0FEF6D
:1000A00004BB00E002B90093640021B150916300E9
:1000B00030E061E000E00FBD0DE00EBD00E00BBDE3
:1000C0000AE00ABD00E00DBD0CBD00E107BF789459
:1000D00065BB0E94B4000E947E003F3FC9F77F3F8E
:1000E000B9F70E94BC0070E00C9468000F930FB742
:1000F0000F937FEF0F910FBF0F911895542F4091E1
:100100006300541761F040FF0C94900041FF0C9481
:10011000990044FF0C94A20043FF0C94AB00089597
:1001200000E00BBD04E60ABD00E00DBD0CBD0C9463
:100130008F0000E00BBD02E30ABD00E00DBD0CBD69
:100140000C948F0000E00BBD09E10ABD00E00DBD7D
:100150000CBD0C948F0000E00BBD0CE00ABD00E06C
:100160000DBD0CBD0C948F00212F11B1103019F46E
:10017000203409F430950895613011F462E0089557
:10018000623019F464E00C94BF00643019F468E044
:100190000C94BF00683019F460E80C94BF0060381C
:1001A00019F460E40C94BF00603419F460E20C941C
:1001B000BF00603219F460E10C94BF006031E1F6D9
:0601C00061E00C94BF0099
:00000001FF
