:020000020000FC
:100000000C944B000C9446000C9446000C94460053
:100010000C9446000C9446000C9446000C94460048
:100020000C9446000C9446000C9446000C94460038
:100030000C9481000C9446000C9446000C948900AA
:100040000C9446000C9446000C9446000C94460018
:100050000C9446000C9446000C9446000C94460008
:100060000C9446000C9446000C9446000C944600F8
:100070000C9446000C9446000C9446000C944600E8
:100080000C9446000C9446000C9446000FEF04BB01
:1000900005EA05BBFFCF0FEF0DBF00E10EBF0FEF6D
:1000A00004BB00E002B90093640021B150916300E9
:1000B00030E061E09EE080E00BE601BF0FE003BFAF
:1000C00000E002BF00E00FBD0DE00EBD0AE20BBD77
:1000D00000E30ABD00E00DBD0CBD02E107BF78944E
:1000E00065BB8F3F29F480E00E94BD000E94940010
:1000F0003F3FB1F77F3FA1F70E94CA0070E00C9428
:1001000070000F930FB70F937FEF0F910FBF0F91F9
:1001100018950F930FB70F939A9511F48FEF9EE0F8
:100120000F910FBF0F911895542F409163005417F2
:1001300061F040FF0C94A60041FF0C94AA0044FF1C
:100140000C94AE0043FF0C94B2000895A4E5B0E611
:100150000C94B600AAE2B0E30C94B600A5E1B8E1B5
:100160000C94B600AAE0BCE80C94B600ABBDBABDD6
:1001700000E00DBD0CBD0C94A500212F11B116FDA2
:100180000C94C90026FF0C94C900309500E00DBD09
:100190000CBD0895613011F462E00895623019F4E5
:1001A00064E00C94CD00643019F468E00C94CD0048
:1001B000683019F460E80C94CD00603819F460E4FC
:1001C0000C94CD00603419F460E20C94CD006032E0
:1001D00019F460E10C94CD006031E1F661E00C941B
:0201E000CD0050
:00000001FF
