:020000020000FC
:100000000C944B000C9446000C9446000C94460053
:100010000C9446000C9446000C9446000C94460048
:100020000C9446000C9446000C9446000C94460038
:100030000C9474000C9446000C9446000C944600FA
:100040000C9446000C9446000C9446000C94460018
:100050000C9446000C9446000C9446000C94460008
:100060000C9446000C9446000C9446000C944600F8
:100070000C9446000C9446000C9446000C944600E8
:100080000C9446000C9446000C9446000FEF04BB01
:1000900005EA05BBFFCF0FEF0DBF00E10EBF0FEF6D
:1000A00004BB00E002B90093640021B130E061E0DC
:1000B00000E00FBD0DE00EBD00E00BBD0AE00ABD83
:1000C00000E00DBD0CBD00E107BF789465BB212F9A
:1000D00011B10E947C003F3FC9F77F3FB9F70E94F2
:1000E000820070E00C9466000F930FB70F937FEFC0
:1000F0000F910FBF0F911895103019F4203409F4A7
:1001000030950895613011F462E00895623019F479
:1001100064E00C948500643019F468E00C94850068
:10012000683019F460E80C948500603819F460E4D4
:100130000C948500603419F460E20C948500603200
:1001400019F460E10C9485006031E1F661E00C94F3
:02015000850028
:00000001FF
