:020000020000FC
:100000000C944B000C9446000C9446000C94460053
:100010000C9446000C9446000C9446000C94460048
:100020000C9446000C9446000C9446000C94460038
:100030000C9481000C9446000C9446000C948900AA
:100040000C9446000C9446000C9446000C94460018
:100050000C9446000C9446000C9446000C94460008
:100060000C9446000C9446000C9446000C944600F8
:100070000C9446000C9446000C9446000C944600E8
:100080000C9446000C9446000C9446000FEF04BB01
:1000900005EA05BBFFCF0FEF0DBF00E10EBF0FEF6D
:1000A00004BB00E002B90093640021B150916300E9
:1000B00030E061E097E080E003E001BF0FE003BFC4
:1000C00000E002BF00E00FBD0DE00EBD00E00BBD83
:1000D00004E60ABD00E00DBD0CBD02E107BF789447
:1000E00065BB8F3F29F480E00E94CA000E94940003
:1000F0003F3FB1F77F3FA1F70E94D20070E00C9420
:1001000070000F930FB70F937FEF0F910FBF0F91F9
:1001100018950F930FB70F939A9511F48FEF97E0FF
:100120000F910FBF0F911895542F409163005417F2
:1001300061F040FF0C94A60041FF0C94AF0044FF17
:100140000C94B80043FF0C94C100089501E00BBD6E
:1001500000E90ABD00E00DBD0CBD0C94A50000E057
:100160000BBD08EC0ABD00E00DBD0CBD0C94A50054
:1001700000E00BBD04E60ABD00E00DBD0CBD0C9413
:10018000A50000E00BBD02E30ABD00E00DBD0CBD03
:100190000C94A500212F11B1103019F4203409F46A
:1001A00030950895613011F462E00895623019F4D9
:1001B00064E00C94D500643019F468E00C94D50028
:1001C000683019F460E80C94D500603819F460E4E4
:1001D0000C94D500603419F460E20C94D5006032C0
:1001E00019F460E10C94D5006031E1F661E00C9403
:0201F000D50038
:00000001FF
